:100000000C942A000C9434000C9434000C943400AA
:100010000C9434000C9434000C9434000C94340090
:100020000C9434000C9434000C9434000C94340080
:100030000C9434000C9434000C9434000C94340070
:100040000C9434000C9434000C9434000C94340060
:100050000C94340011241FBECFE5D8E0DEBFCDBF25
:100060000E947B020C9483020C9400004423D1F57F
:100070008130A1F0813030F08230E1F0833009F03E
:1000800067C024C02AB381E090E002C0880F991FA6
:100090006A95E2F7809582238ABB089527B381E0B1
:1000A00090E002C0880F991F6A95E2F7809582233D
:1000B00087BB089524B381E090E002C0880F991FA8
:1000C0006A95E2F78095822384BB089521B381E08D
:1000D00090E002C0880F991F6A95E2F7809582230D
:1000E00081BB08954130A1F5813091F0813028F035
:1000F0008230C9F0833061F521C02AB381E090E0FD
:1001000002C0880F991F6A95E2F7282B2ABB089531
:1001100027B381E090E002C0880F991F6A95E2F74B
:10012000282B27BB089524B381E090E002C0880FFC
:10013000991F6A95E2F7282B24BB089521B381E02B
:1001400090E002C0880F991F6A95E2F7282B21BB27
:1001500008954130B1F5813099F0813030F082302E
:10016000D1F0833009F067C021C02BB381E090E06B
:1001700002C0880F991F6A95E2F7282B2BBB0895C0
:1001800028B381E090E002C0880F991F6A95E2F7DA
:10019000282B28BB089525B381E090E002C0880F8A
:1001A000991F6A95E2F7282B25BB089522B381E0B9
:1001B00090E002C0880F991F6A95E2F7282B22BBB6
:1001C00008954423C1F5813099F0813028F08230C0
:1001D000D9F0833081F524C02BB381E090E002C0D8
:1001E000880F991F6A95E2F7809582238BBB08954B
:1001F00028B381E090E002C0880F991F6A95E2F76A
:100200008095822388BB089525B381E090E002C0E9
:10021000880F991F6A95E2F78095822385BB089520
:1002200022B381E090E002C0880F991F6A95E2F73F
:100230008095822382BB0895FA01813091F081304C
:1002400028F08230C9F0833071F522C089B390E084
:1002500002C0959587956A95E2F7817089BB89B34D
:1002600015C086B390E002C0959587956A95E2F730
:10027000817086BB86B30AC083B390E002C09595B7
:1002800087956A95E2F7817083BB83B38083089575
:1002900080B390E002C0959587956A95E2F78170EA
:1002A00080BB80B380830895662389F4813049F050
:1002B000813028F0823039F08330F9F406C01ABA60
:1002C000089517BA089514BA089511BA08956130BF
:1002D000A1F4813051F0813028F0823049F0833030
:1002E00061F409C08FEF8ABB08958FEF87BB089533
:1002F0008FEF84BB08958FEF81BB0895813049F063
:10030000813028F0823039F0833041F406C06BBB75
:10031000089568BB089565BB089562BB0895FB010D
:10032000813049F0813028F0823039F0833051F447
:1003300007C089B303C086B301C083B38083089527
:1003400080B380830895FF920F931F93F82E82E06D
:1003500060E041E00E94A90000EA1FE0C8010197A7
:10036000F1F782E061E040E00E94A90082E062E0F3
:1003700041E00E94A900C8010197F1F780E06F2DCC
:100380000E947E01C8010197F1F782E062E040E03F
:100390000E94A900C8010197F1F71F910F91FF90EA
:1003A0000895843009F1853048F48130B9F0813006
:1003B00098F08230A9F0833031F514C08730D1F045
:1003C000883028F4853091F08630E9F411C0883007
:1003D00099F08930C1F414C080E30FC081E30DC0EF
:1003E00082E30BC083E309C084E307C085E305C053
:1003F00086E303C087E301C088E30E94A301089558
:1004000089E30E94A3010895CF93DF93EC0102C01A
:100410000E94A30189918823D9F7DF91CF91089594
:10042000FF920F931F93F82E82E060E040E00E945D
:10043000A90000EA1FE0C8010197F1F782E061E03E
:1004400040E00E94A90082E062E041E00E94A90031
:10045000C8010197F1F782E06F2D0E947E01C8016B
:100460000197F1F782E062E040E00E94A900C80134
:100470000197F1F71F910F91FF900895882329F4B8
:10048000862F80580E9410020895813021F4862F13
:1004900080540E941002089582E061E041E00E94D1
:1004A000360082E060E041E00E94360082E062E0D7
:1004B00041E00E94360088EC90E020E931E0F9014B
:1004C0003197F1F70197D9F780E061E00E9454017C
:1004D00088EC90E020E931E0F9013197F1F70197DC
:1004E000D9F788E30E9410028CE00E94100281E09C
:1004F0000E94100208950E944C0281E60E94A3010E
:0A05000080E090E00895F894FFCF2A
:00000001FF
